{
	"contracts/SimpleStorage.sol": {
		"SimpleStorage": {
			"abi": [
				{
					"inputs": [],
					"name": "add",
					"outputs": [
						{
							"internalType": "uint32",
							"name": "",
							"type": "uint32"
						}
					],
					"stateMutability": "pure",
					"type": "function"
				},
				{
					"inputs": [
						{
							"internalType": "uint256",
							"name": "num",
							"type": "uint256"
						},
						{
							"internalType": "string",
							"name": "name",
							"type": "string"
						}
					],
					"name": "addPeople",
					"outputs": [],
					"stateMutability": "nonpayable",
					"type": "function"
				},
				{
					"inputs": [],
					"name": "getSec",
					"outputs": [
						{
							"internalType": "uint256",
							"name": "",
							"type": "uint256"
						}
					],
					"stateMutability": "view",
					"type": "function"
				},
				{
					"inputs": [
						{
							"internalType": "string",
							"name": "",
							"type": "string"
						}
					],
					"name": "nameToFav",
					"outputs": [
						{
							"internalType": "uint256",
							"name": "",
							"type": "uint256"
						}
					],
					"stateMutability": "view",
					"type": "function"
				},
				{
					"inputs": [
						{
							"internalType": "uint256",
							"name": "",
							"type": "uint256"
						}
					],
					"name": "persons",
					"outputs": [
						{
							"internalType": "uint256",
							"name": "FavNum",
							"type": "uint256"
						},
						{
							"internalType": "string",
							"name": "name1",
							"type": "string"
						}
					],
					"stateMutability": "view",
					"type": "function"
				},
				{
					"inputs": [],
					"name": "reterive",
					"outputs": [
						{
							"internalType": "uint256",
							"name": "",
							"type": "uint256"
						}
					],
					"stateMutability": "view",
					"type": "function"
				},
				{
					"inputs": [
						{
							"internalType": "uint256",
							"name": "_favNum",
							"type": "uint256"
						}
					],
					"name": "store",
					"outputs": [],
					"stateMutability": "nonpayable",
					"type": "function"
				}
			],
			"devdoc": {
				"kind": "dev",
				"methods": {},
				"version": 1
			},
			"evm": {
				"assembly": "    /* \"contracts/SimpleStorage.sol\":182:3074  contract SimpleStorage{... */\n  mstore(0x40, 0x80)\n    /* \"contracts/SimpleStorage.sol\":373:376  123 */\n  0x7b\n    /* \"contracts/SimpleStorage.sol\":359:376  uint favNum = 123 */\n  0x00\n  sstore\n    /* \"contracts/SimpleStorage.sol\":634:637  234 */\n  0xea\n    /* \"contracts/SimpleStorage.sol\":614:637  int256 favnumber1 = 234 */\n  0x01\n  sstore\n    /* \"contracts/SimpleStorage.sol\":644:672  bytes32 favoriteByte = \"cat\" */\n  sstore(0x02, 0x6361740000000000000000000000000000000000000000000000000000000000)\n    /* \"contracts/SimpleStorage.sol\":182:3074  contract SimpleStorage{... */\n  callvalue\n  dup1\n  iszero\n  tag_1\n  jumpi\n  0x00\n  dup1\n  revert\ntag_1:\n  pop\n  dataSize(sub_0)\n  dup1\n  dataOffset(sub_0)\n  0x00\n  codecopy\n  0x00\n  return\nstop\n\nsub_0: assembly {\n        /* \"contracts/SimpleStorage.sol\":182:3074  contract SimpleStorage{... */\n      mstore(0x40, 0x80)\n      callvalue\n      dup1\n      iszero\n      tag_1\n      jumpi\n      0x00\n      dup1\n      revert\n    tag_1:\n      pop\n      jumpi(tag_2, lt(calldatasize, 0x04))\n      shr(0xe0, calldataload(0x00))\n      dup1\n      0x8f7d59b8\n      gt\n      tag_10\n      jumpi\n      dup1\n      0x8f7d59b8\n      eq\n      tag_6\n      jumpi\n      dup1\n      0x95679e46\n      eq\n      tag_7\n      jumpi\n      dup1\n      0x9b4e2cdd\n      eq\n      tag_8\n      jumpi\n      dup1\n      0xa2f9eac6\n      eq\n      tag_9\n      jumpi\n      jump(tag_2)\n    tag_10:\n      dup1\n      0x2f3c602e\n      eq\n      tag_3\n      jumpi\n      dup1\n      0x4f2be91f\n      eq\n      tag_4\n      jumpi\n      dup1\n      0x6057361d\n      eq\n      tag_5\n      jumpi\n    tag_2:\n      0x00\n      dup1\n      revert\n        /* \"contracts/SimpleStorage.sol\":1753:1829  function getSec() public view returns(uint256){... */\n    tag_3:\n      tag_11\n      tag_12\n      jump\t// in\n    tag_11:\n      mload(0x40)\n      tag_13\n      swap2\n      swap1\n      tag_14\n      jump\t// in\n    tag_13:\n      mload(0x40)\n      dup1\n      swap2\n      sub\n      swap1\n      return\n        /* \"contracts/SimpleStorage.sol\":1368:1439  function add() public pure returns(uint32){... */\n    tag_4:\n      tag_15\n      tag_16\n      jump\t// in\n    tag_15:\n      mload(0x40)\n      tag_17\n      swap2\n      swap1\n      tag_18\n      jump\t// in\n    tag_17:\n      mload(0x40)\n      dup1\n      swap2\n      sub\n      swap1\n      return\n        /* \"contracts/SimpleStorage.sol\":871:942  function store(uint256 _favNum) public{... */\n    tag_5:\n      tag_19\n      0x04\n      dup1\n      calldatasize\n      sub\n      dup2\n      add\n      swap1\n      tag_20\n      swap2\n      swap1\n      tag_21\n      jump\t// in\n    tag_20:\n      tag_22\n      jump\t// in\n    tag_19:\n      stop\n        /* \"contracts/SimpleStorage.sol\":2143:2342  function addPeople(uint256 num,string memory name) public {... */\n    tag_6:\n      tag_23\n      0x04\n      dup1\n      calldatasize\n      sub\n      dup2\n      add\n      swap1\n      tag_24\n      swap2\n      swap1\n      tag_25\n      jump\t// in\n    tag_24:\n      tag_26\n      jump\t// in\n    tag_23:\n      stop\n        /* \"contracts/SimpleStorage.sol\":2041:2084  mapping(string => uint256) public nameToFav */\n    tag_7:\n      tag_27\n      0x04\n      dup1\n      calldatasize\n      sub\n      dup2\n      add\n      swap1\n      tag_28\n      swap2\n      swap1\n      tag_29\n      jump\t// in\n    tag_28:\n      tag_30\n      jump\t// in\n    tag_27:\n      mload(0x40)\n      tag_31\n      swap2\n      swap1\n      tag_14\n      jump\t// in\n    tag_31:\n      mload(0x40)\n      dup1\n      swap2\n      sub\n      swap1\n      return\n        /* \"contracts/SimpleStorage.sol\":1284:1362  function reterive() public view returns(uint256){... */\n    tag_8:\n      tag_32\n      tag_33\n      jump\t// in\n    tag_32:\n      mload(0x40)\n      tag_34\n      swap2\n      swap1\n      tag_14\n      jump\t// in\n    tag_34:\n      mload(0x40)\n      dup1\n      swap2\n      sub\n      swap1\n      return\n        /* \"contracts/SimpleStorage.sol\":2011:2034  People[] public persons */\n    tag_9:\n      tag_35\n      0x04\n      dup1\n      calldatasize\n      sub\n      dup2\n      add\n      swap1\n      tag_36\n      swap2\n      swap1\n      tag_21\n      jump\t// in\n    tag_36:\n      tag_37\n      jump\t// in\n    tag_35:\n      mload(0x40)\n      tag_38\n      swap3\n      swap2\n      swap1\n      tag_39\n      jump\t// in\n    tag_38:\n      mload(0x40)\n      dup1\n      swap2\n      sub\n      swap1\n      return\n        /* \"contracts/SimpleStorage.sol\":1753:1829  function getSec() public view returns(uint256){... */\n    tag_12:\n        /* \"contracts/SimpleStorage.sol\":1791:1798  uint256 */\n      0x00\n        /* \"contracts/SimpleStorage.sol\":1816:1822  secNum */\n      sload(0x04)\n        /* \"contracts/SimpleStorage.sol\":1809:1822  return secNum */\n      swap1\n      pop\n        /* \"contracts/SimpleStorage.sol\":1753:1829  function getSec() public view returns(uint256){... */\n      swap1\n      jump\t// out\n        /* \"contracts/SimpleStorage.sol\":1368:1439  function add() public pure returns(uint32){... */\n    tag_16:\n        /* \"contracts/SimpleStorage.sol\":1403:1409  uint32 */\n      0x00\n        /* \"contracts/SimpleStorage.sol\":1428:1431  1+1 */\n      0x02\n        /* \"contracts/SimpleStorage.sol\":1420:1432  return (1+1) */\n      swap1\n      pop\n        /* \"contracts/SimpleStorage.sol\":1368:1439  function add() public pure returns(uint32){... */\n      swap1\n      jump\t// out\n        /* \"contracts/SimpleStorage.sol\":871:942  function store(uint256 _favNum) public{... */\n    tag_22:\n        /* \"contracts/SimpleStorage.sol\":928:935  _favNum */\n      dup1\n        /* \"contracts/SimpleStorage.sol\":919:925  favNum */\n      0x00\n        /* \"contracts/SimpleStorage.sol\":919:935  favNum = _favNum */\n      dup2\n      swap1\n      sstore\n      pop\n        /* \"contracts/SimpleStorage.sol\":871:942  function store(uint256 _favNum) public{... */\n      pop\n      jump\t// out\n        /* \"contracts/SimpleStorage.sol\":2143:2342  function addPeople(uint256 num,string memory name) public {... */\n    tag_26:\n        /* \"contracts/SimpleStorage.sol\":2211:2234  People memory newPerson */\n      0x00\n        /* \"contracts/SimpleStorage.sol\":2237:2270  People({FavNum: num,name1: name}) */\n      mload(0x40)\n      dup1\n      0x40\n      add\n      0x40\n      mstore\n      dup1\n        /* \"contracts/SimpleStorage.sol\":2253:2256  num */\n      dup5\n        /* \"contracts/SimpleStorage.sol\":2237:2270  People({FavNum: num,name1: name}) */\n      dup2\n      mstore\n      0x20\n      add\n        /* \"contracts/SimpleStorage.sol\":2264:2268  name */\n      dup4\n        /* \"contracts/SimpleStorage.sol\":2237:2270  People({FavNum: num,name1: name}) */\n      dup2\n      mstore\n      pop\n        /* \"contracts/SimpleStorage.sol\":2211:2270  People memory newPerson = People({FavNum: num,name1: name}) */\n      swap1\n      pop\n        /* \"contracts/SimpleStorage.sol\":2280:2287  persons */\n      0x05\n        /* \"contracts/SimpleStorage.sol\":2293:2302  newPerson */\n      dup2\n        /* \"contracts/SimpleStorage.sol\":2280:2303  persons.push(newPerson) */\n      swap1\n      dup1\n      0x01\n      dup2\n      sload\n      add\n      dup1\n      dup3\n      sstore\n      dup1\n      swap2\n      pop\n      pop\n      0x01\n      swap1\n      sub\n      swap1\n      0x00\n      mstore\n      keccak256(0x00, 0x20)\n      swap1\n      0x02\n      mul\n      add\n      0x00\n      swap1\n      swap2\n      swap1\n      swap2\n      swap1\n      swap2\n      pop\n      0x00\n      dup3\n      add\n      mload\n      dup2\n      0x00\n      add\n      sstore\n      0x20\n      dup3\n      add\n      mload\n      dup2\n      0x01\n      add\n      swap1\n      dup1\n      mload\n      swap1\n      0x20\n      add\n      swap1\n      tag_45\n      swap3\n      swap2\n      swap1\n      tag_46\n      jump\t// in\n    tag_45:\n      pop\n      pop\n      pop\n        /* \"contracts/SimpleStorage.sol\":2332:2335  num */\n      dup3\n        /* \"contracts/SimpleStorage.sol\":2314:2323  nameToFav */\n      0x06\n        /* \"contracts/SimpleStorage.sol\":2324:2328  name */\n      dup4\n        /* \"contracts/SimpleStorage.sol\":2314:2329  nameToFav[name] */\n      mload(0x40)\n      tag_47\n      swap2\n      swap1\n      tag_48\n      jump\t// in\n    tag_47:\n      swap1\n      dup2\n      mstore\n      0x20\n      add\n      mload(0x40)\n      dup1\n      swap2\n      sub\n      swap1\n      keccak256\n        /* \"contracts/SimpleStorage.sol\":2314:2335  nameToFav[name] = num */\n      dup2\n      swap1\n      sstore\n      pop\n        /* \"contracts/SimpleStorage.sol\":2201:2342  {... */\n      pop\n        /* \"contracts/SimpleStorage.sol\":2143:2342  function addPeople(uint256 num,string memory name) public {... */\n      pop\n      pop\n      jump\t// out\n        /* \"contracts/SimpleStorage.sol\":2041:2084  mapping(string => uint256) public nameToFav */\n    tag_30:\n      0x06\n      dup2\n      dup1\n      mload\n      0x20\n      dup2\n      add\n      dup3\n      add\n      dup1\n      mload\n      dup5\n      dup3\n      mstore\n      0x20\n      dup4\n      add\n      0x20\n      dup6\n      add\n      keccak256\n      dup2\n      dup4\n      mstore\n      dup1\n      swap6\n      pop\n      pop\n      pop\n      pop\n      pop\n      pop\n      0x00\n      swap2\n      pop\n      swap1\n      pop\n      sload\n      dup2\n      jump\t// out\n        /* \"contracts/SimpleStorage.sol\":1284:1362  function reterive() public view returns(uint256){... */\n    tag_33:\n        /* \"contracts/SimpleStorage.sol\":1324:1331  uint256 */\n      0x00\n        /* \"contracts/SimpleStorage.sol\":1349:1355  favNum */\n      dup1\n      sload\n        /* \"contracts/SimpleStorage.sol\":1342:1355  return favNum */\n      swap1\n      pop\n        /* \"contracts/SimpleStorage.sol\":1284:1362  function reterive() public view returns(uint256){... */\n      swap1\n      jump\t// out\n        /* \"contracts/SimpleStorage.sol\":2011:2034  People[] public persons */\n    tag_37:\n      0x05\n      dup2\n      dup2\n      sload\n      dup2\n      lt\n      tag_50\n      jumpi\n      0x00\n      dup1\n      revert\n    tag_50:\n      swap1\n      0x00\n      mstore\n      keccak256(0x00, 0x20)\n      swap1\n      0x02\n      mul\n      add\n      0x00\n      swap2\n      pop\n      swap1\n      pop\n      dup1\n      0x00\n      add\n      sload\n      swap1\n      dup1\n      0x01\n      add\n      dup1\n      sload\n      tag_52\n      swap1\n      tag_53\n      jump\t// in\n    tag_52:\n      dup1\n      0x1f\n      add\n      0x20\n      dup1\n      swap2\n      div\n      mul\n      0x20\n      add\n      mload(0x40)\n      swap1\n      dup2\n      add\n      0x40\n      mstore\n      dup1\n      swap3\n      swap2\n      swap1\n      dup2\n      dup2\n      mstore\n      0x20\n      add\n      dup3\n      dup1\n      sload\n      tag_54\n      swap1\n      tag_53\n      jump\t// in\n    tag_54:\n      dup1\n      iszero\n      tag_55\n      jumpi\n      dup1\n      0x1f\n      lt\n      tag_56\n      jumpi\n      0x0100\n      dup1\n      dup4\n      sload\n      div\n      mul\n      dup4\n      mstore\n      swap2\n      0x20\n      add\n      swap2\n      jump(tag_55)\n    tag_56:\n      dup3\n      add\n      swap2\n      swap1\n      0x00\n      mstore\n      keccak256(0x00, 0x20)\n      swap1\n    tag_57:\n      dup2\n      sload\n      dup2\n      mstore\n      swap1\n      0x01\n      add\n      swap1\n      0x20\n      add\n      dup1\n      dup4\n      gt\n      tag_57\n      jumpi\n      dup3\n      swap1\n      sub\n      0x1f\n      and\n      dup3\n      add\n      swap2\n    tag_55:\n      pop\n      pop\n      pop\n      pop\n      pop\n      swap1\n      pop\n      dup3\n      jump\t// out\n    tag_46:\n      dup3\n      dup1\n      sload\n      tag_58\n      swap1\n      tag_53\n      jump\t// in\n    tag_58:\n      swap1\n      0x00\n      mstore\n      keccak256(0x00, 0x20)\n      swap1\n      0x1f\n      add\n      0x20\n      swap1\n      div\n      dup2\n      add\n      swap3\n      dup3\n      tag_60\n      jumpi\n      0x00\n      dup6\n      sstore\n      jump(tag_59)\n    tag_60:\n      dup3\n      0x1f\n      lt\n      tag_61\n      jumpi\n      dup1\n      mload\n      not(0xff)\n      and\n      dup4\n      dup1\n      add\n      or\n      dup6\n      sstore\n      jump(tag_59)\n    tag_61:\n      dup3\n      dup1\n      add\n      0x01\n      add\n      dup6\n      sstore\n      dup3\n      iszero\n      tag_59\n      jumpi\n      swap2\n      dup3\n      add\n    tag_62:\n      dup3\n      dup2\n      gt\n      iszero\n      tag_63\n      jumpi\n      dup3\n      mload\n      dup3\n      sstore\n      swap2\n      0x20\n      add\n      swap2\n      swap1\n      0x01\n      add\n      swap1\n      jump(tag_62)\n    tag_63:\n    tag_59:\n      pop\n      swap1\n      pop\n      tag_64\n      swap2\n      swap1\n      tag_65\n      jump\t// in\n    tag_64:\n      pop\n      swap1\n      jump\t// out\n    tag_65:\n    tag_66:\n      dup1\n      dup3\n      gt\n      iszero\n      tag_67\n      jumpi\n      0x00\n      dup2\n      0x00\n      swap1\n      sstore\n      pop\n      0x01\n      add\n      jump(tag_66)\n    tag_67:\n      pop\n      swap1\n      jump\t// out\n        /* \"#utility.yul\":7:84   */\n    tag_68:\n        /* \"#utility.yul\":44:51   */\n      0x00\n        /* \"#utility.yul\":73:78   */\n      dup2\n        /* \"#utility.yul\":62:78   */\n      swap1\n      pop\n        /* \"#utility.yul\":7:84   */\n      swap2\n      swap1\n      pop\n      jump\t// out\n        /* \"#utility.yul\":90:208   */\n    tag_69:\n        /* \"#utility.yul\":177:201   */\n      tag_97\n        /* \"#utility.yul\":195:200   */\n      dup2\n        /* \"#utility.yul\":177:201   */\n      tag_68\n      jump\t// in\n    tag_97:\n        /* \"#utility.yul\":172:175   */\n      dup3\n        /* \"#utility.yul\":165:202   */\n      mstore\n        /* \"#utility.yul\":90:208   */\n      pop\n      pop\n      jump\t// out\n        /* \"#utility.yul\":214:436   */\n    tag_14:\n        /* \"#utility.yul\":307:311   */\n      0x00\n        /* \"#utility.yul\":345:347   */\n      0x20\n        /* \"#utility.yul\":334:343   */\n      dup3\n        /* \"#utility.yul\":330:348   */\n      add\n        /* \"#utility.yul\":322:348   */\n      swap1\n      pop\n        /* \"#utility.yul\":358:429   */\n      tag_99\n        /* \"#utility.yul\":426:427   */\n      0x00\n        /* \"#utility.yul\":415:424   */\n      dup4\n        /* \"#utility.yul\":411:428   */\n      add\n        /* \"#utility.yul\":402:408   */\n      dup5\n        /* \"#utility.yul\":358:429   */\n      tag_69\n      jump\t// in\n    tag_99:\n        /* \"#utility.yul\":214:436   */\n      swap3\n      swap2\n      pop\n      pop\n      jump\t// out\n        /* \"#utility.yul\":442:535   */\n    tag_70:\n        /* \"#utility.yul\":478:485   */\n      0x00\n        /* \"#utility.yul\":518:528   */\n      0xffffffff\n        /* \"#utility.yul\":511:516   */\n      dup3\n        /* \"#utility.yul\":507:529   */\n      and\n        /* \"#utility.yul\":496:529   */\n      swap1\n      pop\n        /* \"#utility.yul\":442:535   */\n      swap2\n      swap1\n      pop\n      jump\t// out\n        /* \"#utility.yul\":541:656   */\n    tag_71:\n        /* \"#utility.yul\":626:649   */\n      tag_102\n        /* \"#utility.yul\":643:648   */\n      dup2\n        /* \"#utility.yul\":626:649   */\n      tag_70\n      jump\t// in\n    tag_102:\n        /* \"#utility.yul\":621:624   */\n      dup3\n        /* \"#utility.yul\":614:650   */\n      mstore\n        /* \"#utility.yul\":541:656   */\n      pop\n      pop\n      jump\t// out\n        /* \"#utility.yul\":662:880   */\n    tag_18:\n        /* \"#utility.yul\":753:757   */\n      0x00\n        /* \"#utility.yul\":791:793   */\n      0x20\n        /* \"#utility.yul\":780:789   */\n      dup3\n        /* \"#utility.yul\":776:794   */\n      add\n        /* \"#utility.yul\":768:794   */\n      swap1\n      pop\n        /* \"#utility.yul\":804:873   */\n      tag_104\n        /* \"#utility.yul\":870:871   */\n      0x00\n        /* \"#utility.yul\":859:868   */\n      dup4\n        /* \"#utility.yul\":855:872   */\n      add\n        /* \"#utility.yul\":846:852   */\n      dup5\n        /* \"#utility.yul\":804:873   */\n      tag_71\n      jump\t// in\n    tag_104:\n        /* \"#utility.yul\":662:880   */\n      swap3\n      swap2\n      pop\n      pop\n      jump\t// out\n        /* \"#utility.yul\":886:961   */\n    tag_72:\n        /* \"#utility.yul\":919:925   */\n      0x00\n        /* \"#utility.yul\":952:954   */\n      0x40\n        /* \"#utility.yul\":946:955   */\n      mload\n        /* \"#utility.yul\":936:955   */\n      swap1\n      pop\n        /* \"#utility.yul\":886:961   */\n      swap1\n      jump\t// out\n        /* \"#utility.yul\":967:1084   */\n    tag_73:\n        /* \"#utility.yul\":1076:1077   */\n      0x00\n        /* \"#utility.yul\":1073:1074   */\n      dup1\n        /* \"#utility.yul\":1066:1078   */\n      revert\n        /* \"#utility.yul\":1090:1207   */\n    tag_74:\n        /* \"#utility.yul\":1199:1200   */\n      0x00\n        /* \"#utility.yul\":1196:1197   */\n      dup1\n        /* \"#utility.yul\":1189:1201   */\n      revert\n        /* \"#utility.yul\":1213:1335   */\n    tag_75:\n        /* \"#utility.yul\":1286:1310   */\n      tag_109\n        /* \"#utility.yul\":1304:1309   */\n      dup2\n        /* \"#utility.yul\":1286:1310   */\n      tag_68\n      jump\t// in\n    tag_109:\n        /* \"#utility.yul\":1279:1284   */\n      dup2\n        /* \"#utility.yul\":1276:1311   */\n      eq\n        /* \"#utility.yul\":1266:1329   */\n      tag_110\n      jumpi\n        /* \"#utility.yul\":1325:1326   */\n      0x00\n        /* \"#utility.yul\":1322:1323   */\n      dup1\n        /* \"#utility.yul\":1315:1327   */\n      revert\n        /* \"#utility.yul\":1266:1329   */\n    tag_110:\n        /* \"#utility.yul\":1213:1335   */\n      pop\n      jump\t// out\n        /* \"#utility.yul\":1341:1480   */\n    tag_76:\n        /* \"#utility.yul\":1387:1392   */\n      0x00\n        /* \"#utility.yul\":1425:1431   */\n      dup2\n        /* \"#utility.yul\":1412:1432   */\n      calldataload\n        /* \"#utility.yul\":1403:1432   */\n      swap1\n      pop\n        /* \"#utility.yul\":1441:1474   */\n      tag_112\n        /* \"#utility.yul\":1468:1473   */\n      dup2\n        /* \"#utility.yul\":1441:1474   */\n      tag_75\n      jump\t// in\n    tag_112:\n        /* \"#utility.yul\":1341:1480   */\n      swap3\n      swap2\n      pop\n      pop\n      jump\t// out\n        /* \"#utility.yul\":1486:1815   */\n    tag_21:\n        /* \"#utility.yul\":1545:1551   */\n      0x00\n        /* \"#utility.yul\":1594:1596   */\n      0x20\n        /* \"#utility.yul\":1582:1591   */\n      dup3\n        /* \"#utility.yul\":1573:1580   */\n      dup5\n        /* \"#utility.yul\":1569:1592   */\n      sub\n        /* \"#utility.yul\":1565:1597   */\n      slt\n        /* \"#utility.yul\":1562:1681   */\n      iszero\n      tag_114\n      jumpi\n        /* \"#utility.yul\":1600:1679   */\n      tag_115\n      tag_73\n      jump\t// in\n    tag_115:\n        /* \"#utility.yul\":1562:1681   */\n    tag_114:\n        /* \"#utility.yul\":1720:1721   */\n      0x00\n        /* \"#utility.yul\":1745:1798   */\n      tag_116\n        /* \"#utility.yul\":1790:1797   */\n      dup5\n        /* \"#utility.yul\":1781:1787   */\n      dup3\n        /* \"#utility.yul\":1770:1779   */\n      dup6\n        /* \"#utility.yul\":1766:1788   */\n      add\n        /* \"#utility.yul\":1745:1798   */\n      tag_76\n      jump\t// in\n    tag_116:\n        /* \"#utility.yul\":1735:1798   */\n      swap2\n      pop\n        /* \"#utility.yul\":1691:1808   */\n      pop\n        /* \"#utility.yul\":1486:1815   */\n      swap3\n      swap2\n      pop\n      pop\n      jump\t// out\n        /* \"#utility.yul\":1821:1938   */\n    tag_77:\n        /* \"#utility.yul\":1930:1931   */\n      0x00\n        /* \"#utility.yul\":1927:1928   */\n      dup1\n        /* \"#utility.yul\":1920:1932   */\n      revert\n        /* \"#utility.yul\":1944:2061   */\n    tag_78:\n        /* \"#utility.yul\":2053:2054   */\n      0x00\n        /* \"#utility.yul\":2050:2051   */\n      dup1\n        /* \"#utility.yul\":2043:2055   */\n      revert\n        /* \"#utility.yul\":2067:2169   */\n    tag_79:\n        /* \"#utility.yul\":2108:2114   */\n      0x00\n        /* \"#utility.yul\":2159:2161   */\n      0x1f\n        /* \"#utility.yul\":2155:2162   */\n      not\n        /* \"#utility.yul\":2150:2152   */\n      0x1f\n        /* \"#utility.yul\":2143:2148   */\n      dup4\n        /* \"#utility.yul\":2139:2153   */\n      add\n        /* \"#utility.yul\":2135:2163   */\n      and\n        /* \"#utility.yul\":2125:2163   */\n      swap1\n      pop\n        /* \"#utility.yul\":2067:2169   */\n      swap2\n      swap1\n      pop\n      jump\t// out\n        /* \"#utility.yul\":2175:2355   */\n    tag_80:\n        /* \"#utility.yul\":2223:2300   */\n      0x4e487b7100000000000000000000000000000000000000000000000000000000\n        /* \"#utility.yul\":2220:2221   */\n      0x00\n        /* \"#utility.yul\":2213:2301   */\n      mstore\n        /* \"#utility.yul\":2320:2324   */\n      0x41\n        /* \"#utility.yul\":2317:2318   */\n      0x04\n        /* \"#utility.yul\":2310:2325   */\n      mstore\n        /* \"#utility.yul\":2344:2348   */\n      0x24\n        /* \"#utility.yul\":2341:2342   */\n      0x00\n        /* \"#utility.yul\":2334:2349   */\n      revert\n        /* \"#utility.yul\":2361:2642   */\n    tag_81:\n        /* \"#utility.yul\":2444:2471   */\n      tag_122\n        /* \"#utility.yul\":2466:2470   */\n      dup3\n        /* \"#utility.yul\":2444:2471   */\n      tag_79\n      jump\t// in\n    tag_122:\n        /* \"#utility.yul\":2436:2442   */\n      dup2\n        /* \"#utility.yul\":2432:2472   */\n      add\n        /* \"#utility.yul\":2574:2580   */\n      dup2\n        /* \"#utility.yul\":2562:2572   */\n      dup2\n        /* \"#utility.yul\":2559:2581   */\n      lt\n        /* \"#utility.yul\":2538:2556   */\n      0xffffffffffffffff\n        /* \"#utility.yul\":2526:2536   */\n      dup3\n        /* \"#utility.yul\":2523:2557   */\n      gt\n        /* \"#utility.yul\":2520:2582   */\n      or\n        /* \"#utility.yul\":2517:2605   */\n      iszero\n      tag_123\n      jumpi\n        /* \"#utility.yul\":2585:2603   */\n      tag_124\n      tag_80\n      jump\t// in\n    tag_124:\n        /* \"#utility.yul\":2517:2605   */\n    tag_123:\n        /* \"#utility.yul\":2625:2635   */\n      dup1\n        /* \"#utility.yul\":2621:2623   */\n      0x40\n        /* \"#utility.yul\":2614:2636   */\n      mstore\n        /* \"#utility.yul\":2404:2642   */\n      pop\n        /* \"#utility.yul\":2361:2642   */\n      pop\n      pop\n      jump\t// out\n        /* \"#utility.yul\":2648:2777   */\n    tag_82:\n        /* \"#utility.yul\":2682:2688   */\n      0x00\n        /* \"#utility.yul\":2709:2729   */\n      tag_126\n      tag_72\n      jump\t// in\n    tag_126:\n        /* \"#utility.yul\":2699:2729   */\n      swap1\n      pop\n        /* \"#utility.yul\":2738:2771   */\n      tag_127\n        /* \"#utility.yul\":2766:2770   */\n      dup3\n        /* \"#utility.yul\":2758:2764   */\n      dup3\n        /* \"#utility.yul\":2738:2771   */\n      tag_81\n      jump\t// in\n    tag_127:\n        /* \"#utility.yul\":2648:2777   */\n      swap2\n      swap1\n      pop\n      jump\t// out\n        /* \"#utility.yul\":2783:3091   */\n    tag_83:\n        /* \"#utility.yul\":2845:2849   */\n      0x00\n        /* \"#utility.yul\":2935:2953   */\n      0xffffffffffffffff\n        /* \"#utility.yul\":2927:2933   */\n      dup3\n        /* \"#utility.yul\":2924:2954   */\n      gt\n        /* \"#utility.yul\":2921:2977   */\n      iszero\n      tag_129\n      jumpi\n        /* \"#utility.yul\":2957:2975   */\n      tag_130\n      tag_80\n      jump\t// in\n    tag_130:\n        /* \"#utility.yul\":2921:2977   */\n    tag_129:\n        /* \"#utility.yul\":2995:3024   */\n      tag_131\n        /* \"#utility.yul\":3017:3023   */\n      dup3\n        /* \"#utility.yul\":2995:3024   */\n      tag_79\n      jump\t// in\n    tag_131:\n        /* \"#utility.yul\":2987:3024   */\n      swap1\n      pop\n        /* \"#utility.yul\":3079:3083   */\n      0x20\n        /* \"#utility.yul\":3073:3077   */\n      dup2\n        /* \"#utility.yul\":3069:3084   */\n      add\n        /* \"#utility.yul\":3061:3084   */\n      swap1\n      pop\n        /* \"#utility.yul\":2783:3091   */\n      swap2\n      swap1\n      pop\n      jump\t// out\n        /* \"#utility.yul\":3097:3251   */\n    tag_84:\n        /* \"#utility.yul\":3181:3187   */\n      dup3\n        /* \"#utility.yul\":3176:3179   */\n      dup2\n        /* \"#utility.yul\":3171:3174   */\n      dup4\n        /* \"#utility.yul\":3158:3188   */\n      calldatacopy\n        /* \"#utility.yul\":3243:3244   */\n      0x00\n        /* \"#utility.yul\":3234:3240   */\n      dup4\n        /* \"#utility.yul\":3229:3232   */\n      dup4\n        /* \"#utility.yul\":3225:3241   */\n      add\n        /* \"#utility.yul\":3218:3245   */\n      mstore\n        /* \"#utility.yul\":3097:3251   */\n      pop\n      pop\n      pop\n      jump\t// out\n        /* \"#utility.yul\":3257:3669   */\n    tag_85:\n        /* \"#utility.yul\":3335:3340   */\n      0x00\n        /* \"#utility.yul\":3360:3426   */\n      tag_134\n        /* \"#utility.yul\":3376:3425   */\n      tag_135\n        /* \"#utility.yul\":3418:3424   */\n      dup5\n        /* \"#utility.yul\":3376:3425   */\n      tag_83\n      jump\t// in\n    tag_135:\n        /* \"#utility.yul\":3360:3426   */\n      tag_82\n      jump\t// in\n    tag_134:\n        /* \"#utility.yul\":3351:3426   */\n      swap1\n      pop\n        /* \"#utility.yul\":3449:3455   */\n      dup3\n        /* \"#utility.yul\":3442:3447   */\n      dup2\n        /* \"#utility.yul\":3435:3456   */\n      mstore\n        /* \"#utility.yul\":3487:3491   */\n      0x20\n        /* \"#utility.yul\":3480:3485   */\n      dup2\n        /* \"#utility.yul\":3476:3492   */\n      add\n        /* \"#utility.yul\":3525:3528   */\n      dup5\n        /* \"#utility.yul\":3516:3522   */\n      dup5\n        /* \"#utility.yul\":3511:3514   */\n      dup5\n        /* \"#utility.yul\":3507:3523   */\n      add\n        /* \"#utility.yul\":3504:3529   */\n      gt\n        /* \"#utility.yul\":3501:3613   */\n      iszero\n      tag_136\n      jumpi\n        /* \"#utility.yul\":3532:3611   */\n      tag_137\n      tag_78\n      jump\t// in\n    tag_137:\n        /* \"#utility.yul\":3501:3613   */\n    tag_136:\n        /* \"#utility.yul\":3622:3663   */\n      tag_138\n        /* \"#utility.yul\":3656:3662   */\n      dup5\n        /* \"#utility.yul\":3651:3654   */\n      dup3\n        /* \"#utility.yul\":3646:3649   */\n      dup6\n        /* \"#utility.yul\":3622:3663   */\n      tag_84\n      jump\t// in\n    tag_138:\n        /* \"#utility.yul\":3341:3669   */\n      pop\n        /* \"#utility.yul\":3257:3669   */\n      swap4\n      swap3\n      pop\n      pop\n      pop\n      jump\t// out\n        /* \"#utility.yul\":3689:4029   */\n    tag_86:\n        /* \"#utility.yul\":3745:3750   */\n      0x00\n        /* \"#utility.yul\":3794:3797   */\n      dup3\n        /* \"#utility.yul\":3787:3791   */\n      0x1f\n        /* \"#utility.yul\":3779:3785   */\n      dup4\n        /* \"#utility.yul\":3775:3792   */\n      add\n        /* \"#utility.yul\":3771:3798   */\n      slt\n        /* \"#utility.yul\":3761:3883   */\n      tag_140\n      jumpi\n        /* \"#utility.yul\":3802:3881   */\n      tag_141\n      tag_77\n      jump\t// in\n    tag_141:\n        /* \"#utility.yul\":3761:3883   */\n    tag_140:\n        /* \"#utility.yul\":3919:3925   */\n      dup2\n        /* \"#utility.yul\":3906:3926   */\n      calldataload\n        /* \"#utility.yul\":3944:4023   */\n      tag_142\n        /* \"#utility.yul\":4019:4022   */\n      dup5\n        /* \"#utility.yul\":4011:4017   */\n      dup3\n        /* \"#utility.yul\":4004:4008   */\n      0x20\n        /* \"#utility.yul\":3996:4002   */\n      dup7\n        /* \"#utility.yul\":3992:4009   */\n      add\n        /* \"#utility.yul\":3944:4023   */\n      tag_85\n      jump\t// in\n    tag_142:\n        /* \"#utility.yul\":3935:4023   */\n      swap2\n      pop\n        /* \"#utility.yul\":3751:4029   */\n      pop\n        /* \"#utility.yul\":3689:4029   */\n      swap3\n      swap2\n      pop\n      pop\n      jump\t// out\n        /* \"#utility.yul\":4035:4689   */\n    tag_25:\n        /* \"#utility.yul\":4113:4119   */\n      0x00\n        /* \"#utility.yul\":4121:4127   */\n      dup1\n        /* \"#utility.yul\":4170:4172   */\n      0x40\n        /* \"#utility.yul\":4158:4167   */\n      dup4\n        /* \"#utility.yul\":4149:4156   */\n      dup6\n        /* \"#utility.yul\":4145:4168   */\n      sub\n        /* \"#utility.yul\":4141:4173   */\n      slt\n        /* \"#utility.yul\":4138:4257   */\n      iszero\n      tag_144\n      jumpi\n        /* \"#utility.yul\":4176:4255   */\n      tag_145\n      tag_73\n      jump\t// in\n    tag_145:\n        /* \"#utility.yul\":4138:4257   */\n    tag_144:\n        /* \"#utility.yul\":4296:4297   */\n      0x00\n        /* \"#utility.yul\":4321:4374   */\n      tag_146\n        /* \"#utility.yul\":4366:4373   */\n      dup6\n        /* \"#utility.yul\":4357:4363   */\n      dup3\n        /* \"#utility.yul\":4346:4355   */\n      dup7\n        /* \"#utility.yul\":4342:4364   */\n      add\n        /* \"#utility.yul\":4321:4374   */\n      tag_76\n      jump\t// in\n    tag_146:\n        /* \"#utility.yul\":4311:4374   */\n      swap3\n      pop\n        /* \"#utility.yul\":4267:4384   */\n      pop\n        /* \"#utility.yul\":4451:4453   */\n      0x20\n        /* \"#utility.yul\":4440:4449   */\n      dup4\n        /* \"#utility.yul\":4436:4454   */\n      add\n        /* \"#utility.yul\":4423:4455   */\n      calldataload\n        /* \"#utility.yul\":4482:4500   */\n      0xffffffffffffffff\n        /* \"#utility.yul\":4474:4480   */\n      dup2\n        /* \"#utility.yul\":4471:4501   */\n      gt\n        /* \"#utility.yul\":4468:4585   */\n      iszero\n      tag_147\n      jumpi\n        /* \"#utility.yul\":4504:4583   */\n      tag_148\n      tag_74\n      jump\t// in\n    tag_148:\n        /* \"#utility.yul\":4468:4585   */\n    tag_147:\n        /* \"#utility.yul\":4609:4672   */\n      tag_149\n        /* \"#utility.yul\":4664:4671   */\n      dup6\n        /* \"#utility.yul\":4655:4661   */\n      dup3\n        /* \"#utility.yul\":4644:4653   */\n      dup7\n        /* \"#utility.yul\":4640:4662   */\n      add\n        /* \"#utility.yul\":4609:4672   */\n      tag_86\n      jump\t// in\n    tag_149:\n        /* \"#utility.yul\":4599:4672   */\n      swap2\n      pop\n        /* \"#utility.yul\":4394:4682   */\n      pop\n        /* \"#utility.yul\":4035:4689   */\n      swap3\n      pop\n      swap3\n      swap1\n      pop\n      jump\t// out\n        /* \"#utility.yul\":4695:5204   */\n    tag_29:\n        /* \"#utility.yul\":4764:4770   */\n      0x00\n        /* \"#utility.yul\":4813:4815   */\n      0x20\n        /* \"#utility.yul\":4801:4810   */\n      dup3\n        /* \"#utility.yul\":4792:4799   */\n      dup5\n        /* \"#utility.yul\":4788:4811   */\n      sub\n        /* \"#utility.yul\":4784:4816   */\n      slt\n        /* \"#utility.yul\":4781:4900   */\n      iszero\n      tag_151\n      jumpi\n        /* \"#utility.yul\":4819:4898   */\n      tag_152\n      tag_73\n      jump\t// in\n    tag_152:\n        /* \"#utility.yul\":4781:4900   */\n    tag_151:\n        /* \"#utility.yul\":4967:4968   */\n      0x00\n        /* \"#utility.yul\":4956:4965   */\n      dup3\n        /* \"#utility.yul\":4952:4969   */\n      add\n        /* \"#utility.yul\":4939:4970   */\n      calldataload\n        /* \"#utility.yul\":4997:5015   */\n      0xffffffffffffffff\n        /* \"#utility.yul\":4989:4995   */\n      dup2\n        /* \"#utility.yul\":4986:5016   */\n      gt\n        /* \"#utility.yul\":4983:5100   */\n      iszero\n      tag_153\n      jumpi\n        /* \"#utility.yul\":5019:5098   */\n      tag_154\n      tag_74\n      jump\t// in\n    tag_154:\n        /* \"#utility.yul\":4983:5100   */\n    tag_153:\n        /* \"#utility.yul\":5124:5187   */\n      tag_155\n        /* \"#utility.yul\":5179:5186   */\n      dup5\n        /* \"#utility.yul\":5170:5176   */\n      dup3\n        /* \"#utility.yul\":5159:5168   */\n      dup6\n        /* \"#utility.yul\":5155:5177   */\n      add\n        /* \"#utility.yul\":5124:5187   */\n      tag_86\n      jump\t// in\n    tag_155:\n        /* \"#utility.yul\":5114:5187   */\n      swap2\n      pop\n        /* \"#utility.yul\":4910:5197   */\n      pop\n        /* \"#utility.yul\":4695:5204   */\n      swap3\n      swap2\n      pop\n      pop\n      jump\t// out\n        /* \"#utility.yul\":5210:5309   */\n    tag_87:\n        /* \"#utility.yul\":5262:5268   */\n      0x00\n        /* \"#utility.yul\":5296:5301   */\n      dup2\n        /* \"#utility.yul\":5290:5302   */\n      mload\n        /* \"#utility.yul\":5280:5302   */\n      swap1\n      pop\n        /* \"#utility.yul\":5210:5309   */\n      swap2\n      swap1\n      pop\n      jump\t// out\n        /* \"#utility.yul\":5315:5484   */\n    tag_88:\n        /* \"#utility.yul\":5399:5410   */\n      0x00\n        /* \"#utility.yul\":5433:5439   */\n      dup3\n        /* \"#utility.yul\":5428:5431   */\n      dup3\n        /* \"#utility.yul\":5421:5440   */\n      mstore\n        /* \"#utility.yul\":5473:5477   */\n      0x20\n        /* \"#utility.yul\":5468:5471   */\n      dup3\n        /* \"#utility.yul\":5464:5478   */\n      add\n        /* \"#utility.yul\":5449:5478   */\n      swap1\n      pop\n        /* \"#utility.yul\":5315:5484   */\n      swap3\n      swap2\n      pop\n      pop\n      jump\t// out\n        /* \"#utility.yul\":5490:5797   */\n    tag_89:\n        /* \"#utility.yul\":5558:5559   */\n      0x00\n        /* \"#utility.yul\":5568:5681   */\n    tag_159:\n        /* \"#utility.yul\":5582:5588   */\n      dup4\n        /* \"#utility.yul\":5579:5580   */\n      dup2\n        /* \"#utility.yul\":5576:5589   */\n      lt\n        /* \"#utility.yul\":5568:5681   */\n      iszero\n      tag_161\n      jumpi\n        /* \"#utility.yul\":5667:5668   */\n      dup1\n        /* \"#utility.yul\":5662:5665   */\n      dup3\n        /* \"#utility.yul\":5658:5669   */\n      add\n        /* \"#utility.yul\":5652:5670   */\n      mload\n        /* \"#utility.yul\":5648:5649   */\n      dup2\n        /* \"#utility.yul\":5643:5646   */\n      dup5\n        /* \"#utility.yul\":5639:5650   */\n      add\n        /* \"#utility.yul\":5632:5671   */\n      mstore\n        /* \"#utility.yul\":5604:5606   */\n      0x20\n        /* \"#utility.yul\":5601:5602   */\n      dup2\n        /* \"#utility.yul\":5597:5607   */\n      add\n        /* \"#utility.yul\":5592:5607   */\n      swap1\n      pop\n        /* \"#utility.yul\":5568:5681   */\n      jump(tag_159)\n    tag_161:\n        /* \"#utility.yul\":5699:5705   */\n      dup4\n        /* \"#utility.yul\":5696:5697   */\n      dup2\n        /* \"#utility.yul\":5693:5706   */\n      gt\n        /* \"#utility.yul\":5690:5791   */\n      iszero\n      tag_162\n      jumpi\n        /* \"#utility.yul\":5779:5780   */\n      0x00\n        /* \"#utility.yul\":5770:5776   */\n      dup5\n        /* \"#utility.yul\":5765:5768   */\n      dup5\n        /* \"#utility.yul\":5761:5777   */\n      add\n        /* \"#utility.yul\":5754:5781   */\n      mstore\n        /* \"#utility.yul\":5690:5791   */\n    tag_162:\n        /* \"#utility.yul\":5539:5797   */\n      pop\n        /* \"#utility.yul\":5490:5797   */\n      pop\n      pop\n      pop\n      jump\t// out\n        /* \"#utility.yul\":5803:6167   */\n    tag_90:\n        /* \"#utility.yul\":5891:5894   */\n      0x00\n        /* \"#utility.yul\":5919:5958   */\n      tag_164\n        /* \"#utility.yul\":5952:5957   */\n      dup3\n        /* \"#utility.yul\":5919:5958   */\n      tag_87\n      jump\t// in\n    tag_164:\n        /* \"#utility.yul\":5974:6045   */\n      tag_165\n        /* \"#utility.yul\":6038:6044   */\n      dup2\n        /* \"#utility.yul\":6033:6036   */\n      dup6\n        /* \"#utility.yul\":5974:6045   */\n      tag_88\n      jump\t// in\n    tag_165:\n        /* \"#utility.yul\":5967:6045   */\n      swap4\n      pop\n        /* \"#utility.yul\":6054:6106   */\n      tag_166\n        /* \"#utility.yul\":6099:6105   */\n      dup2\n        /* \"#utility.yul\":6094:6097   */\n      dup6\n        /* \"#utility.yul\":6087:6091   */\n      0x20\n        /* \"#utility.yul\":6080:6085   */\n      dup7\n        /* \"#utility.yul\":6076:6092   */\n      add\n        /* \"#utility.yul\":6054:6106   */\n      tag_89\n      jump\t// in\n    tag_166:\n        /* \"#utility.yul\":6131:6160   */\n      tag_167\n        /* \"#utility.yul\":6153:6159   */\n      dup2\n        /* \"#utility.yul\":6131:6160   */\n      tag_79\n      jump\t// in\n    tag_167:\n        /* \"#utility.yul\":6126:6129   */\n      dup5\n        /* \"#utility.yul\":6122:6161   */\n      add\n        /* \"#utility.yul\":6115:6161   */\n      swap2\n      pop\n        /* \"#utility.yul\":5895:6167   */\n      pop\n        /* \"#utility.yul\":5803:6167   */\n      swap3\n      swap2\n      pop\n      pop\n      jump\t// out\n        /* \"#utility.yul\":6173:6596   */\n    tag_39:\n        /* \"#utility.yul\":6314:6318   */\n      0x00\n        /* \"#utility.yul\":6352:6354   */\n      0x40\n        /* \"#utility.yul\":6341:6350   */\n      dup3\n        /* \"#utility.yul\":6337:6355   */\n      add\n        /* \"#utility.yul\":6329:6355   */\n      swap1\n      pop\n        /* \"#utility.yul\":6365:6436   */\n      tag_169\n        /* \"#utility.yul\":6433:6434   */\n      0x00\n        /* \"#utility.yul\":6422:6431   */\n      dup4\n        /* \"#utility.yul\":6418:6435   */\n      add\n        /* \"#utility.yul\":6409:6415   */\n      dup6\n        /* \"#utility.yul\":6365:6436   */\n      tag_69\n      jump\t// in\n    tag_169:\n        /* \"#utility.yul\":6483:6492   */\n      dup2\n        /* \"#utility.yul\":6477:6481   */\n      dup2\n        /* \"#utility.yul\":6473:6493   */\n      sub\n        /* \"#utility.yul\":6468:6470   */\n      0x20\n        /* \"#utility.yul\":6457:6466   */\n      dup4\n        /* \"#utility.yul\":6453:6471   */\n      add\n        /* \"#utility.yul\":6446:6494   */\n      mstore\n        /* \"#utility.yul\":6511:6589   */\n      tag_170\n        /* \"#utility.yul\":6584:6588   */\n      dup2\n        /* \"#utility.yul\":6575:6581   */\n      dup5\n        /* \"#utility.yul\":6511:6589   */\n      tag_90\n      jump\t// in\n    tag_170:\n        /* \"#utility.yul\":6503:6589   */\n      swap1\n      pop\n        /* \"#utility.yul\":6173:6596   */\n      swap4\n      swap3\n      pop\n      pop\n      pop\n      jump\t// out\n        /* \"#utility.yul\":6602:6750   */\n    tag_91:\n        /* \"#utility.yul\":6704:6715   */\n      0x00\n        /* \"#utility.yul\":6741:6744   */\n      dup2\n        /* \"#utility.yul\":6726:6744   */\n      swap1\n      pop\n        /* \"#utility.yul\":6602:6750   */\n      swap3\n      swap2\n      pop\n      pop\n      jump\t// out\n        /* \"#utility.yul\":6756:7133   */\n    tag_92:\n        /* \"#utility.yul\":6862:6865   */\n      0x00\n        /* \"#utility.yul\":6890:6929   */\n      tag_173\n        /* \"#utility.yul\":6923:6928   */\n      dup3\n        /* \"#utility.yul\":6890:6929   */\n      tag_87\n      jump\t// in\n    tag_173:\n        /* \"#utility.yul\":6945:7034   */\n      tag_174\n        /* \"#utility.yul\":7027:7033   */\n      dup2\n        /* \"#utility.yul\":7022:7025   */\n      dup6\n        /* \"#utility.yul\":6945:7034   */\n      tag_91\n      jump\t// in\n    tag_174:\n        /* \"#utility.yul\":6938:7034   */\n      swap4\n      pop\n        /* \"#utility.yul\":7043:7095   */\n      tag_175\n        /* \"#utility.yul\":7088:7094   */\n      dup2\n        /* \"#utility.yul\":7083:7086   */\n      dup6\n        /* \"#utility.yul\":7076:7080   */\n      0x20\n        /* \"#utility.yul\":7069:7074   */\n      dup7\n        /* \"#utility.yul\":7065:7081   */\n      add\n        /* \"#utility.yul\":7043:7095   */\n      tag_89\n      jump\t// in\n    tag_175:\n        /* \"#utility.yul\":7120:7126   */\n      dup1\n        /* \"#utility.yul\":7115:7118   */\n      dup5\n        /* \"#utility.yul\":7111:7127   */\n      add\n        /* \"#utility.yul\":7104:7127   */\n      swap2\n      pop\n        /* \"#utility.yul\":6866:7133   */\n      pop\n        /* \"#utility.yul\":6756:7133   */\n      swap3\n      swap2\n      pop\n      pop\n      jump\t// out\n        /* \"#utility.yul\":7139:7414   */\n    tag_48:\n        /* \"#utility.yul\":7271:7274   */\n      0x00\n        /* \"#utility.yul\":7293:7388   */\n      tag_177\n        /* \"#utility.yul\":7384:7387   */\n      dup3\n        /* \"#utility.yul\":7375:7381   */\n      dup5\n        /* \"#utility.yul\":7293:7388   */\n      tag_92\n      jump\t// in\n    tag_177:\n        /* \"#utility.yul\":7286:7388   */\n      swap2\n      pop\n        /* \"#utility.yul\":7405:7408   */\n      dup2\n        /* \"#utility.yul\":7398:7408   */\n      swap1\n      pop\n        /* \"#utility.yul\":7139:7414   */\n      swap3\n      swap2\n      pop\n      pop\n      jump\t// out\n        /* \"#utility.yul\":7420:7600   */\n    tag_93:\n        /* \"#utility.yul\":7468:7545   */\n      0x4e487b7100000000000000000000000000000000000000000000000000000000\n        /* \"#utility.yul\":7465:7466   */\n      0x00\n        /* \"#utility.yul\":7458:7546   */\n      mstore\n        /* \"#utility.yul\":7565:7569   */\n      0x22\n        /* \"#utility.yul\":7562:7563   */\n      0x04\n        /* \"#utility.yul\":7555:7570   */\n      mstore\n        /* \"#utility.yul\":7589:7593   */\n      0x24\n        /* \"#utility.yul\":7586:7587   */\n      0x00\n        /* \"#utility.yul\":7579:7594   */\n      revert\n        /* \"#utility.yul\":7606:7926   */\n    tag_53:\n        /* \"#utility.yul\":7650:7656   */\n      0x00\n        /* \"#utility.yul\":7687:7688   */\n      0x02\n        /* \"#utility.yul\":7681:7685   */\n      dup3\n        /* \"#utility.yul\":7677:7689   */\n      div\n        /* \"#utility.yul\":7667:7689   */\n      swap1\n      pop\n        /* \"#utility.yul\":7734:7735   */\n      0x01\n        /* \"#utility.yul\":7728:7732   */\n      dup3\n        /* \"#utility.yul\":7724:7736   */\n      and\n        /* \"#utility.yul\":7755:7773   */\n      dup1\n        /* \"#utility.yul\":7745:7826   */\n      tag_180\n      jumpi\n        /* \"#utility.yul\":7811:7815   */\n      0x7f\n        /* \"#utility.yul\":7803:7809   */\n      dup3\n        /* \"#utility.yul\":7799:7816   */\n      and\n        /* \"#utility.yul\":7789:7816   */\n      swap2\n      pop\n        /* \"#utility.yul\":7745:7826   */\n    tag_180:\n        /* \"#utility.yul\":7873:7875   */\n      0x20\n        /* \"#utility.yul\":7865:7871   */\n      dup3\n        /* \"#utility.yul\":7862:7876   */\n      lt\n        /* \"#utility.yul\":7842:7860   */\n      dup2\n        /* \"#utility.yul\":7839:7877   */\n      sub\n        /* \"#utility.yul\":7836:7920   */\n      tag_181\n      jumpi\n        /* \"#utility.yul\":7892:7910   */\n      tag_182\n      tag_93\n      jump\t// in\n    tag_182:\n        /* \"#utility.yul\":7836:7920   */\n    tag_181:\n        /* \"#utility.yul\":7657:7926   */\n      pop\n        /* \"#utility.yul\":7606:7926   */\n      swap2\n      swap1\n      pop\n      jump\t// out\n\n    auxdata: 0xa2646970667358221220ad8d4acbf93e67b792e051d5f5a8769a4005f9e5ea08c3c2b9de072fac49bd1364736f6c634300080d0033\n}\n",
				"bytecode": {
					"linkReferences": {},
					"object": "6080604052607b60005560ea6001557f636174000000000000000000000000000000000000000000000000000000000060025534801561003e57600080fd5b506108258061004e6000396000f3fe608060405234801561001057600080fd5b506004361061007d5760003560e01c80638f7d59b81161005b5780638f7d59b8146100da57806395679e46146100f65780639b4e2cdd14610126578063a2f9eac6146101445761007d565b80632f3c602e146100825780634f2be91f146100a05780636057361d146100be575b600080fd5b61008a610175565b60405161009791906103d7565b60405180910390f35b6100a861017f565b6040516100b59190610411565b60405180910390f35b6100d860048036038101906100d3919061046c565b610188565b005b6100f460048036038101906100ef91906105df565b610192565b005b610110600480360381019061010b919061063b565b610228565b60405161011d91906103d7565b60405180910390f35b61012e610256565b60405161013b91906103d7565b60405180910390f35b61015e6004803603810190610159919061046c565b61025f565b60405161016c92919061070c565b60405180910390f35b6000600454905090565b60006002905090565b8060008190555050565b6000604051806040016040528084815260200183815250905060058190806001815401808255809150506001900390600052602060002090600202016000909190919091506000820151816000015560208201518160010190805190602001906101fd92919061031b565b505050826006836040516102119190610778565b908152602001604051809103902081905550505050565b6006818051602081018201805184825260208301602085012081835280955050505050506000915090505481565b60008054905090565b6005818154811061026f57600080fd5b9060005260206000209060020201600091509050806000015490806001018054610298906107be565b80601f01602080910402602001604051908101604052809291908181526020018280546102c4906107be565b80156103115780601f106102e657610100808354040283529160200191610311565b820191906000526020600020905b8154815290600101906020018083116102f457829003601f168201915b5050505050905082565b828054610327906107be565b90600052602060002090601f0160209004810192826103495760008555610390565b82601f1061036257805160ff1916838001178555610390565b82800160010185558215610390579182015b8281111561038f578251825591602001919060010190610374565b5b50905061039d91906103a1565b5090565b5b808211156103ba5760008160009055506001016103a2565b5090565b6000819050919050565b6103d1816103be565b82525050565b60006020820190506103ec60008301846103c8565b92915050565b600063ffffffff82169050919050565b61040b816103f2565b82525050565b60006020820190506104266000830184610402565b92915050565b6000604051905090565b600080fd5b600080fd5b610449816103be565b811461045457600080fd5b50565b60008135905061046681610440565b92915050565b60006020828403121561048257610481610436565b5b600061049084828501610457565b91505092915050565b600080fd5b600080fd5b6000601f19601f8301169050919050565b7f4e487b7100000000000000000000000000000000000000000000000000000000600052604160045260246000fd5b6104ec826104a3565b810181811067ffffffffffffffff8211171561050b5761050a6104b4565b5b80604052505050565b600061051e61042c565b905061052a82826104e3565b919050565b600067ffffffffffffffff82111561054a576105496104b4565b5b610553826104a3565b9050602081019050919050565b82818337600083830152505050565b600061058261057d8461052f565b610514565b90508281526020810184848401111561059e5761059d61049e565b5b6105a9848285610560565b509392505050565b600082601f8301126105c6576105c5610499565b5b81356105d684826020860161056f565b91505092915050565b600080604083850312156105f6576105f5610436565b5b600061060485828601610457565b925050602083013567ffffffffffffffff8111156106255761062461043b565b5b610631858286016105b1565b9150509250929050565b60006020828403121561065157610650610436565b5b600082013567ffffffffffffffff81111561066f5761066e61043b565b5b61067b848285016105b1565b91505092915050565b600081519050919050565b600082825260208201905092915050565b60005b838110156106be5780820151818401526020810190506106a3565b838111156106cd576000848401525b50505050565b60006106de82610684565b6106e8818561068f565b93506106f88185602086016106a0565b610701816104a3565b840191505092915050565b600060408201905061072160008301856103c8565b818103602083015261073381846106d3565b90509392505050565b600081905092915050565b600061075282610684565b61075c818561073c565b935061076c8185602086016106a0565b80840191505092915050565b60006107848284610747565b915081905092915050565b7f4e487b7100000000000000000000000000000000000000000000000000000000600052602260045260246000fd5b600060028204905060018216806107d657607f821691505b6020821081036107e9576107e861078f565b5b5091905056fea2646970667358221220ad8d4acbf93e67b792e051d5f5a8769a4005f9e5ea08c3c2b9de072fac49bd1364736f6c634300080d0033",
					"opcodes": "PUSH1 0x80 PUSH1 0x40 MSTORE PUSH1 0x7B PUSH1 0x0 SSTORE PUSH1 0xEA PUSH1 0x1 SSTORE PUSH32 0x6361740000000000000000000000000000000000000000000000000000000000 PUSH1 0x2 SSTORE CALLVALUE DUP1 ISZERO PUSH2 0x3E JUMPI PUSH1 0x0 DUP1 REVERT JUMPDEST POP PUSH2 0x825 DUP1 PUSH2 0x4E PUSH1 0x0 CODECOPY PUSH1 0x0 RETURN INVALID PUSH1 0x80 PUSH1 0x40 MSTORE CALLVALUE DUP1 ISZERO PUSH2 0x10 JUMPI PUSH1 0x0 DUP1 REVERT JUMPDEST POP PUSH1 0x4 CALLDATASIZE LT PUSH2 0x7D JUMPI PUSH1 0x0 CALLDATALOAD PUSH1 0xE0 SHR DUP1 PUSH4 0x8F7D59B8 GT PUSH2 0x5B JUMPI DUP1 PUSH4 0x8F7D59B8 EQ PUSH2 0xDA JUMPI DUP1 PUSH4 0x95679E46 EQ PUSH2 0xF6 JUMPI DUP1 PUSH4 0x9B4E2CDD EQ PUSH2 0x126 JUMPI DUP1 PUSH4 0xA2F9EAC6 EQ PUSH2 0x144 JUMPI PUSH2 0x7D JUMP JUMPDEST DUP1 PUSH4 0x2F3C602E EQ PUSH2 0x82 JUMPI DUP1 PUSH4 0x4F2BE91F EQ PUSH2 0xA0 JUMPI DUP1 PUSH4 0x6057361D EQ PUSH2 0xBE JUMPI JUMPDEST PUSH1 0x0 DUP1 REVERT JUMPDEST PUSH2 0x8A PUSH2 0x175 JUMP JUMPDEST PUSH1 0x40 MLOAD PUSH2 0x97 SWAP2 SWAP1 PUSH2 0x3D7 JUMP JUMPDEST PUSH1 0x40 MLOAD DUP1 SWAP2 SUB SWAP1 RETURN JUMPDEST PUSH2 0xA8 PUSH2 0x17F JUMP JUMPDEST PUSH1 0x40 MLOAD PUSH2 0xB5 SWAP2 SWAP1 PUSH2 0x411 JUMP JUMPDEST PUSH1 0x40 MLOAD DUP1 SWAP2 SUB SWAP1 RETURN JUMPDEST PUSH2 0xD8 PUSH1 0x4 DUP1 CALLDATASIZE SUB DUP2 ADD SWAP1 PUSH2 0xD3 SWAP2 SWAP1 PUSH2 0x46C JUMP JUMPDEST PUSH2 0x188 JUMP JUMPDEST STOP JUMPDEST PUSH2 0xF4 PUSH1 0x4 DUP1 CALLDATASIZE SUB DUP2 ADD SWAP1 PUSH2 0xEF SWAP2 SWAP1 PUSH2 0x5DF JUMP JUMPDEST PUSH2 0x192 JUMP JUMPDEST STOP JUMPDEST PUSH2 0x110 PUSH1 0x4 DUP1 CALLDATASIZE SUB DUP2 ADD SWAP1 PUSH2 0x10B SWAP2 SWAP1 PUSH2 0x63B JUMP JUMPDEST PUSH2 0x228 JUMP JUMPDEST PUSH1 0x40 MLOAD PUSH2 0x11D SWAP2 SWAP1 PUSH2 0x3D7 JUMP JUMPDEST PUSH1 0x40 MLOAD DUP1 SWAP2 SUB SWAP1 RETURN JUMPDEST PUSH2 0x12E PUSH2 0x256 JUMP JUMPDEST PUSH1 0x40 MLOAD PUSH2 0x13B SWAP2 SWAP1 PUSH2 0x3D7 JUMP JUMPDEST PUSH1 0x40 MLOAD DUP1 SWAP2 SUB SWAP1 RETURN JUMPDEST PUSH2 0x15E PUSH1 0x4 DUP1 CALLDATASIZE SUB DUP2 ADD SWAP1 PUSH2 0x159 SWAP2 SWAP1 PUSH2 0x46C JUMP JUMPDEST PUSH2 0x25F JUMP JUMPDEST PUSH1 0x40 MLOAD PUSH2 0x16C SWAP3 SWAP2 SWAP1 PUSH2 0x70C JUMP JUMPDEST PUSH1 0x40 MLOAD DUP1 SWAP2 SUB SWAP1 RETURN JUMPDEST PUSH1 0x0 PUSH1 0x4 SLOAD SWAP1 POP SWAP1 JUMP JUMPDEST PUSH1 0x0 PUSH1 0x2 SWAP1 POP SWAP1 JUMP JUMPDEST DUP1 PUSH1 0x0 DUP2 SWAP1 SSTORE POP POP JUMP JUMPDEST PUSH1 0x0 PUSH1 0x40 MLOAD DUP1 PUSH1 0x40 ADD PUSH1 0x40 MSTORE DUP1 DUP5 DUP2 MSTORE PUSH1 0x20 ADD DUP4 DUP2 MSTORE POP SWAP1 POP PUSH1 0x5 DUP2 SWAP1 DUP1 PUSH1 0x1 DUP2 SLOAD ADD DUP1 DUP3 SSTORE DUP1 SWAP2 POP POP PUSH1 0x1 SWAP1 SUB SWAP1 PUSH1 0x0 MSTORE PUSH1 0x20 PUSH1 0x0 KECCAK256 SWAP1 PUSH1 0x2 MUL ADD PUSH1 0x0 SWAP1 SWAP2 SWAP1 SWAP2 SWAP1 SWAP2 POP PUSH1 0x0 DUP3 ADD MLOAD DUP2 PUSH1 0x0 ADD SSTORE PUSH1 0x20 DUP3 ADD MLOAD DUP2 PUSH1 0x1 ADD SWAP1 DUP1 MLOAD SWAP1 PUSH1 0x20 ADD SWAP1 PUSH2 0x1FD SWAP3 SWAP2 SWAP1 PUSH2 0x31B JUMP JUMPDEST POP POP POP DUP3 PUSH1 0x6 DUP4 PUSH1 0x40 MLOAD PUSH2 0x211 SWAP2 SWAP1 PUSH2 0x778 JUMP JUMPDEST SWAP1 DUP2 MSTORE PUSH1 0x20 ADD PUSH1 0x40 MLOAD DUP1 SWAP2 SUB SWAP1 KECCAK256 DUP2 SWAP1 SSTORE POP POP POP POP JUMP JUMPDEST PUSH1 0x6 DUP2 DUP1 MLOAD PUSH1 0x20 DUP2 ADD DUP3 ADD DUP1 MLOAD DUP5 DUP3 MSTORE PUSH1 0x20 DUP4 ADD PUSH1 0x20 DUP6 ADD KECCAK256 DUP2 DUP4 MSTORE DUP1 SWAP6 POP POP POP POP POP POP PUSH1 0x0 SWAP2 POP SWAP1 POP SLOAD DUP2 JUMP JUMPDEST PUSH1 0x0 DUP1 SLOAD SWAP1 POP SWAP1 JUMP JUMPDEST PUSH1 0x5 DUP2 DUP2 SLOAD DUP2 LT PUSH2 0x26F JUMPI PUSH1 0x0 DUP1 REVERT JUMPDEST SWAP1 PUSH1 0x0 MSTORE PUSH1 0x20 PUSH1 0x0 KECCAK256 SWAP1 PUSH1 0x2 MUL ADD PUSH1 0x0 SWAP2 POP SWAP1 POP DUP1 PUSH1 0x0 ADD SLOAD SWAP1 DUP1 PUSH1 0x1 ADD DUP1 SLOAD PUSH2 0x298 SWAP1 PUSH2 0x7BE JUMP JUMPDEST DUP1 PUSH1 0x1F ADD PUSH1 0x20 DUP1 SWAP2 DIV MUL PUSH1 0x20 ADD PUSH1 0x40 MLOAD SWAP1 DUP2 ADD PUSH1 0x40 MSTORE DUP1 SWAP3 SWAP2 SWAP1 DUP2 DUP2 MSTORE PUSH1 0x20 ADD DUP3 DUP1 SLOAD PUSH2 0x2C4 SWAP1 PUSH2 0x7BE JUMP JUMPDEST DUP1 ISZERO PUSH2 0x311 JUMPI DUP1 PUSH1 0x1F LT PUSH2 0x2E6 JUMPI PUSH2 0x100 DUP1 DUP4 SLOAD DIV MUL DUP4 MSTORE SWAP2 PUSH1 0x20 ADD SWAP2 PUSH2 0x311 JUMP JUMPDEST DUP3 ADD SWAP2 SWAP1 PUSH1 0x0 MSTORE PUSH1 0x20 PUSH1 0x0 KECCAK256 SWAP1 JUMPDEST DUP2 SLOAD DUP2 MSTORE SWAP1 PUSH1 0x1 ADD SWAP1 PUSH1 0x20 ADD DUP1 DUP4 GT PUSH2 0x2F4 JUMPI DUP3 SWAP1 SUB PUSH1 0x1F AND DUP3 ADD SWAP2 JUMPDEST POP POP POP POP POP SWAP1 POP DUP3 JUMP JUMPDEST DUP3 DUP1 SLOAD PUSH2 0x327 SWAP1 PUSH2 0x7BE JUMP JUMPDEST SWAP1 PUSH1 0x0 MSTORE PUSH1 0x20 PUSH1 0x0 KECCAK256 SWAP1 PUSH1 0x1F ADD PUSH1 0x20 SWAP1 DIV DUP2 ADD SWAP3 DUP3 PUSH2 0x349 JUMPI PUSH1 0x0 DUP6 SSTORE PUSH2 0x390 JUMP JUMPDEST DUP3 PUSH1 0x1F LT PUSH2 0x362 JUMPI DUP1 MLOAD PUSH1 0xFF NOT AND DUP4 DUP1 ADD OR DUP6 SSTORE PUSH2 0x390 JUMP JUMPDEST DUP3 DUP1 ADD PUSH1 0x1 ADD DUP6 SSTORE DUP3 ISZERO PUSH2 0x390 JUMPI SWAP2 DUP3 ADD JUMPDEST DUP3 DUP2 GT ISZERO PUSH2 0x38F JUMPI DUP3 MLOAD DUP3 SSTORE SWAP2 PUSH1 0x20 ADD SWAP2 SWAP1 PUSH1 0x1 ADD SWAP1 PUSH2 0x374 JUMP JUMPDEST JUMPDEST POP SWAP1 POP PUSH2 0x39D SWAP2 SWAP1 PUSH2 0x3A1 JUMP JUMPDEST POP SWAP1 JUMP JUMPDEST JUMPDEST DUP1 DUP3 GT ISZERO PUSH2 0x3BA JUMPI PUSH1 0x0 DUP2 PUSH1 0x0 SWAP1 SSTORE POP PUSH1 0x1 ADD PUSH2 0x3A2 JUMP JUMPDEST POP SWAP1 JUMP JUMPDEST PUSH1 0x0 DUP2 SWAP1 POP SWAP2 SWAP1 POP JUMP JUMPDEST PUSH2 0x3D1 DUP2 PUSH2 0x3BE JUMP JUMPDEST DUP3 MSTORE POP POP JUMP JUMPDEST PUSH1 0x0 PUSH1 0x20 DUP3 ADD SWAP1 POP PUSH2 0x3EC PUSH1 0x0 DUP4 ADD DUP5 PUSH2 0x3C8 JUMP JUMPDEST SWAP3 SWAP2 POP POP JUMP JUMPDEST PUSH1 0x0 PUSH4 0xFFFFFFFF DUP3 AND SWAP1 POP SWAP2 SWAP1 POP JUMP JUMPDEST PUSH2 0x40B DUP2 PUSH2 0x3F2 JUMP JUMPDEST DUP3 MSTORE POP POP JUMP JUMPDEST PUSH1 0x0 PUSH1 0x20 DUP3 ADD SWAP1 POP PUSH2 0x426 PUSH1 0x0 DUP4 ADD DUP5 PUSH2 0x402 JUMP JUMPDEST SWAP3 SWAP2 POP POP JUMP JUMPDEST PUSH1 0x0 PUSH1 0x40 MLOAD SWAP1 POP SWAP1 JUMP JUMPDEST PUSH1 0x0 DUP1 REVERT JUMPDEST PUSH1 0x0 DUP1 REVERT JUMPDEST PUSH2 0x449 DUP2 PUSH2 0x3BE JUMP JUMPDEST DUP2 EQ PUSH2 0x454 JUMPI PUSH1 0x0 DUP1 REVERT JUMPDEST POP JUMP JUMPDEST PUSH1 0x0 DUP2 CALLDATALOAD SWAP1 POP PUSH2 0x466 DUP2 PUSH2 0x440 JUMP JUMPDEST SWAP3 SWAP2 POP POP JUMP JUMPDEST PUSH1 0x0 PUSH1 0x20 DUP3 DUP5 SUB SLT ISZERO PUSH2 0x482 JUMPI PUSH2 0x481 PUSH2 0x436 JUMP JUMPDEST JUMPDEST PUSH1 0x0 PUSH2 0x490 DUP5 DUP3 DUP6 ADD PUSH2 0x457 JUMP JUMPDEST SWAP2 POP POP SWAP3 SWAP2 POP POP JUMP JUMPDEST PUSH1 0x0 DUP1 REVERT JUMPDEST PUSH1 0x0 DUP1 REVERT JUMPDEST PUSH1 0x0 PUSH1 0x1F NOT PUSH1 0x1F DUP4 ADD AND SWAP1 POP SWAP2 SWAP1 POP JUMP JUMPDEST PUSH32 0x4E487B7100000000000000000000000000000000000000000000000000000000 PUSH1 0x0 MSTORE PUSH1 0x41 PUSH1 0x4 MSTORE PUSH1 0x24 PUSH1 0x0 REVERT JUMPDEST PUSH2 0x4EC DUP3 PUSH2 0x4A3 JUMP JUMPDEST DUP2 ADD DUP2 DUP2 LT PUSH8 0xFFFFFFFFFFFFFFFF DUP3 GT OR ISZERO PUSH2 0x50B JUMPI PUSH2 0x50A PUSH2 0x4B4 JUMP JUMPDEST JUMPDEST DUP1 PUSH1 0x40 MSTORE POP POP POP JUMP JUMPDEST PUSH1 0x0 PUSH2 0x51E PUSH2 0x42C JUMP JUMPDEST SWAP1 POP PUSH2 0x52A DUP3 DUP3 PUSH2 0x4E3 JUMP JUMPDEST SWAP2 SWAP1 POP JUMP JUMPDEST PUSH1 0x0 PUSH8 0xFFFFFFFFFFFFFFFF DUP3 GT ISZERO PUSH2 0x54A JUMPI PUSH2 0x549 PUSH2 0x4B4 JUMP JUMPDEST JUMPDEST PUSH2 0x553 DUP3 PUSH2 0x4A3 JUMP JUMPDEST SWAP1 POP PUSH1 0x20 DUP2 ADD SWAP1 POP SWAP2 SWAP1 POP JUMP JUMPDEST DUP3 DUP2 DUP4 CALLDATACOPY PUSH1 0x0 DUP4 DUP4 ADD MSTORE POP POP POP JUMP JUMPDEST PUSH1 0x0 PUSH2 0x582 PUSH2 0x57D DUP5 PUSH2 0x52F JUMP JUMPDEST PUSH2 0x514 JUMP JUMPDEST SWAP1 POP DUP3 DUP2 MSTORE PUSH1 0x20 DUP2 ADD DUP5 DUP5 DUP5 ADD GT ISZERO PUSH2 0x59E JUMPI PUSH2 0x59D PUSH2 0x49E JUMP JUMPDEST JUMPDEST PUSH2 0x5A9 DUP5 DUP3 DUP6 PUSH2 0x560 JUMP JUMPDEST POP SWAP4 SWAP3 POP POP POP JUMP JUMPDEST PUSH1 0x0 DUP3 PUSH1 0x1F DUP4 ADD SLT PUSH2 0x5C6 JUMPI PUSH2 0x5C5 PUSH2 0x499 JUMP JUMPDEST JUMPDEST DUP2 CALLDATALOAD PUSH2 0x5D6 DUP5 DUP3 PUSH1 0x20 DUP7 ADD PUSH2 0x56F JUMP JUMPDEST SWAP2 POP POP SWAP3 SWAP2 POP POP JUMP JUMPDEST PUSH1 0x0 DUP1 PUSH1 0x40 DUP4 DUP6 SUB SLT ISZERO PUSH2 0x5F6 JUMPI PUSH2 0x5F5 PUSH2 0x436 JUMP JUMPDEST JUMPDEST PUSH1 0x0 PUSH2 0x604 DUP6 DUP3 DUP7 ADD PUSH2 0x457 JUMP JUMPDEST SWAP3 POP POP PUSH1 0x20 DUP4 ADD CALLDATALOAD PUSH8 0xFFFFFFFFFFFFFFFF DUP2 GT ISZERO PUSH2 0x625 JUMPI PUSH2 0x624 PUSH2 0x43B JUMP JUMPDEST JUMPDEST PUSH2 0x631 DUP6 DUP3 DUP7 ADD PUSH2 0x5B1 JUMP JUMPDEST SWAP2 POP POP SWAP3 POP SWAP3 SWAP1 POP JUMP JUMPDEST PUSH1 0x0 PUSH1 0x20 DUP3 DUP5 SUB SLT ISZERO PUSH2 0x651 JUMPI PUSH2 0x650 PUSH2 0x436 JUMP JUMPDEST JUMPDEST PUSH1 0x0 DUP3 ADD CALLDATALOAD PUSH8 0xFFFFFFFFFFFFFFFF DUP2 GT ISZERO PUSH2 0x66F JUMPI PUSH2 0x66E PUSH2 0x43B JUMP JUMPDEST JUMPDEST PUSH2 0x67B DUP5 DUP3 DUP6 ADD PUSH2 0x5B1 JUMP JUMPDEST SWAP2 POP POP SWAP3 SWAP2 POP POP JUMP JUMPDEST PUSH1 0x0 DUP2 MLOAD SWAP1 POP SWAP2 SWAP1 POP JUMP JUMPDEST PUSH1 0x0 DUP3 DUP3 MSTORE PUSH1 0x20 DUP3 ADD SWAP1 POP SWAP3 SWAP2 POP POP JUMP JUMPDEST PUSH1 0x0 JUMPDEST DUP4 DUP2 LT ISZERO PUSH2 0x6BE JUMPI DUP1 DUP3 ADD MLOAD DUP2 DUP5 ADD MSTORE PUSH1 0x20 DUP2 ADD SWAP1 POP PUSH2 0x6A3 JUMP JUMPDEST DUP4 DUP2 GT ISZERO PUSH2 0x6CD JUMPI PUSH1 0x0 DUP5 DUP5 ADD MSTORE JUMPDEST POP POP POP POP JUMP JUMPDEST PUSH1 0x0 PUSH2 0x6DE DUP3 PUSH2 0x684 JUMP JUMPDEST PUSH2 0x6E8 DUP2 DUP6 PUSH2 0x68F JUMP JUMPDEST SWAP4 POP PUSH2 0x6F8 DUP2 DUP6 PUSH1 0x20 DUP7 ADD PUSH2 0x6A0 JUMP JUMPDEST PUSH2 0x701 DUP2 PUSH2 0x4A3 JUMP JUMPDEST DUP5 ADD SWAP2 POP POP SWAP3 SWAP2 POP POP JUMP JUMPDEST PUSH1 0x0 PUSH1 0x40 DUP3 ADD SWAP1 POP PUSH2 0x721 PUSH1 0x0 DUP4 ADD DUP6 PUSH2 0x3C8 JUMP JUMPDEST DUP2 DUP2 SUB PUSH1 0x20 DUP4 ADD MSTORE PUSH2 0x733 DUP2 DUP5 PUSH2 0x6D3 JUMP JUMPDEST SWAP1 POP SWAP4 SWAP3 POP POP POP JUMP JUMPDEST PUSH1 0x0 DUP2 SWAP1 POP SWAP3 SWAP2 POP POP JUMP JUMPDEST PUSH1 0x0 PUSH2 0x752 DUP3 PUSH2 0x684 JUMP JUMPDEST PUSH2 0x75C DUP2 DUP6 PUSH2 0x73C JUMP JUMPDEST SWAP4 POP PUSH2 0x76C DUP2 DUP6 PUSH1 0x20 DUP7 ADD PUSH2 0x6A0 JUMP JUMPDEST DUP1 DUP5 ADD SWAP2 POP POP SWAP3 SWAP2 POP POP JUMP JUMPDEST PUSH1 0x0 PUSH2 0x784 DUP3 DUP5 PUSH2 0x747 JUMP JUMPDEST SWAP2 POP DUP2 SWAP1 POP SWAP3 SWAP2 POP POP JUMP JUMPDEST PUSH32 0x4E487B7100000000000000000000000000000000000000000000000000000000 PUSH1 0x0 MSTORE PUSH1 0x22 PUSH1 0x4 MSTORE PUSH1 0x24 PUSH1 0x0 REVERT JUMPDEST PUSH1 0x0 PUSH1 0x2 DUP3 DIV SWAP1 POP PUSH1 0x1 DUP3 AND DUP1 PUSH2 0x7D6 JUMPI PUSH1 0x7F DUP3 AND SWAP2 POP JUMPDEST PUSH1 0x20 DUP3 LT DUP2 SUB PUSH2 0x7E9 JUMPI PUSH2 0x7E8 PUSH2 0x78F JUMP JUMPDEST JUMPDEST POP SWAP2 SWAP1 POP JUMP INVALID LOG2 PUSH5 0x6970667358 0x22 SLT KECCAK256 0xAD DUP14 0x4A 0xCB 0xF9 RETURNDATACOPY PUSH8 0xB792E051D5F5A876 SWAP11 BLOCKHASH SDIV 0xF9 0xE5 0xEA ADDMOD 0xC3 0xC2 0xB9 0xDE SMOD 0x2F 0xAC 0x49 0xBD SGT PUSH5 0x736F6C6343 STOP ADDMOD 0xD STOP CALLER "
				},
				"gasEstimates": {
					"creation": {
						"codeDepositCost": "417000",
						"executionCost": "66773",
						"totalCost": "483773"
					},
					"external": {
						"add()": "366",
						"addPeople(uint256,string)": "infinite",
						"getSec()": "2438",
						"nameToFav(string)": "infinite",
						"persons(uint256)": "infinite",
						"reterive()": "2481",
						"store(uint256)": "22565"
					}
				},
				"methodIdentifiers": {
					"add()": "4f2be91f",
					"addPeople(uint256,string)": "8f7d59b8",
					"getSec()": "2f3c602e",
					"nameToFav(string)": "95679e46",
					"persons(uint256)": "a2f9eac6",
					"reterive()": "9b4e2cdd",
					"store(uint256)": "6057361d"
				}
			},
			"storageLayout": {
				"storage": [
					{
						"astId": 4,
						"contract": "contracts/SimpleStorage.sol:SimpleStorage",
						"label": "favNum",
						"offset": 0,
						"slot": "0",
						"type": "t_uint256"
					},
					{
						"astId": 7,
						"contract": "contracts/SimpleStorage.sol:SimpleStorage",
						"label": "favnumber1",
						"offset": 0,
						"slot": "1",
						"type": "t_int256"
					},
					{
						"astId": 10,
						"contract": "contracts/SimpleStorage.sol:SimpleStorage",
						"label": "favoriteByte",
						"offset": 0,
						"slot": "2",
						"type": "t_bytes32"
					},
					{
						"astId": 12,
						"contract": "contracts/SimpleStorage.sol:SimpleStorage",
						"label": "deafNum",
						"offset": 0,
						"slot": "3",
						"type": "t_uint256"
					},
					{
						"astId": 43,
						"contract": "contracts/SimpleStorage.sol:SimpleStorage",
						"label": "secNum",
						"offset": 0,
						"slot": "4",
						"type": "t_uint256"
					},
					{
						"astId": 60,
						"contract": "contracts/SimpleStorage.sol:SimpleStorage",
						"label": "persons",
						"offset": 0,
						"slot": "5",
						"type": "t_array(t_struct(People)56_storage)dyn_storage"
					},
					{
						"astId": 64,
						"contract": "contracts/SimpleStorage.sol:SimpleStorage",
						"label": "nameToFav",
						"offset": 0,
						"slot": "6",
						"type": "t_mapping(t_string_memory_ptr,t_uint256)"
					}
				],
				"types": {
					"t_array(t_struct(People)56_storage)dyn_storage": {
						"base": "t_struct(People)56_storage",
						"encoding": "dynamic_array",
						"label": "struct SimpleStorage.People[]",
						"numberOfBytes": "32"
					},
					"t_bytes32": {
						"encoding": "inplace",
						"label": "bytes32",
						"numberOfBytes": "32"
					},
					"t_int256": {
						"encoding": "inplace",
						"label": "int256",
						"numberOfBytes": "32"
					},
					"t_mapping(t_string_memory_ptr,t_uint256)": {
						"encoding": "mapping",
						"key": "t_string_memory_ptr",
						"label": "mapping(string => uint256)",
						"numberOfBytes": "32",
						"value": "t_uint256"
					},
					"t_string_memory_ptr": {
						"encoding": "bytes",
						"label": "string",
						"numberOfBytes": "32"
					},
					"t_string_storage": {
						"encoding": "bytes",
						"label": "string",
						"numberOfBytes": "32"
					},
					"t_struct(People)56_storage": {
						"encoding": "inplace",
						"label": "struct SimpleStorage.People",
						"members": [
							{
								"astId": 53,
								"contract": "contracts/SimpleStorage.sol:SimpleStorage",
								"label": "FavNum",
								"offset": 0,
								"slot": "0",
								"type": "t_uint256"
							},
							{
								"astId": 55,
								"contract": "contracts/SimpleStorage.sol:SimpleStorage",
								"label": "name1",
								"offset": 0,
								"slot": "1",
								"type": "t_string_storage"
							}
						],
						"numberOfBytes": "64"
					},
					"t_uint256": {
						"encoding": "inplace",
						"label": "uint256",
						"numberOfBytes": "32"
					}
				}
			},
			"userdoc": {
				"kind": "user",
				"methods": {},
				"version": 1
			}
		}
	}
}